:020000040800F2
:10000000C84F00204D020008650E0008E10D0008F1
:10001000610E000845050008E10F0008000000001F
:10002000000000000000000000000000E10E0008D9
:100030004905000800000000710E0008050F0008C7
:1000400067020008670200086702000867020008EC
:1000500067020008670200086702000867020008DC
:1000600067020008670200086702000867020008CC
:1000700067020008670200086702000867020008BC
:1000800067020008670200086702000867020008AC
:10009000670200086702000867020008670200089C
:1000A000670200086702000867020008670200088C
:1000B000670200086702000867020008670200087C
:1000C000670200086702000867020008670200086C
:1000D000670200086702000867020008670200085C
:1000E000670200086702000867020008670200084C
:1000F000670200086702000867020008670200083C
:10010000670200086702000867020008670200082B
:10011000670200086702000867020008670200081B
:10012000670200086702000867020008670200080B
:1001300067020008670200086702000867020008FB
:1001400067020008670200086702000867020008EB
:1001500067020008670200086702000867020008DB
:1001600067020008670200086702000867020008CB
:10017000670200086702000867020008000000002C
:1001800067020008670200086702000867020008AB
:10019000670200086702000867020008670200089B
:1001A00067020008670200086702000800F002F812
:1001B00000F03CF80AA090E8000C82448344AAF1C5
:1001C0000107DA4501D100F031F8AFF2090EBAE8C3
:1001D0000F0013F0010F18BFFB1A43F0010318477B
:1001E0003C2C00005C2C0000103A24BF78C878C179
:1001F000FAD8520724BF30C830C144BF04680C602D
:10020000704700000023002400250026103A28BF74
:1002100078C1FBD8520728BF30C148BF0B60704778
:100220001FB502F0E3FD1FBD10B510BD00F04FF982
:100230001146FFF7F5FF00F0D5FE00F06DF903B4AD
:10024000FFF7F2FF03BC00F075F900000948804792
:1002500009480047FEE7FEE7FEE7FEE7FEE7FEE7A8
:10026000FEE7FEE7FEE7FEE704480549054A064BC0
:1002700070470000CD0F0008AD010008C8490020FC
:10028000C84F0020C84B0020C84B002053EA020C86
:1002900000F069802DE9F04B4FF00006002B1FBFE6
:1002A000B3FA83F503FA05F424FA05F65E4012BFAB
:1002B0001643B2FA82F502FA05F4C5F120051EBF15
:1002C00022FA05FC44EA0C04203556EA044C4FEAB5
:1002D000144418BF641C4FF000084FF0000990420E
:1002E00071EB030C39D3002919BFB1FA81F701FA78
:1002F00007F6B0FA80F700FA07F6C7F120071EBF2D
:1003000020FA07FC46EA0C062037B6FBF4FCA7EB04
:100310000507103F07F01F0BCBF120062CFA06F65D
:100320000CFA0BFB44BFB3460026202FA4BF5E4649
:100330004FF0000B5BEA060C08BF4FF0010B19EB06
:100340000B0948EB0608ABFB027C06FB02CC0BFB5F
:1003500003CCC01B71EB0C01C1E70B4602464146C2
:100360004846BDE8F08B13B5084318BF4FF0FF3087
:100370000146AFF30080BDE81C407047032A40F2FD
:10038000308010F0030C00F0158011F8013BBCF137
:10039000020F624498BF11F801CB00F8013B38BF4F
:1003A00011F8013BA2F1040298BF00F801CB38BF5D
:1003B00000F8013B11F0030300F05780083AC0F049
:1003C000088051F8043B083A51F804CBA0E8081023
:1003D000F5E7121D5CBF51F8043B40F8043BAFF356
:1003E0000080D20724BF11F8013B11F801CB48BFB0
:1003F00011F8012B24BF00F8013B00F801CB48BFE6
:1004000000F8012B704702F0FF0343EA032242EA9F
:10041000024200F002B84FF0000200B513469446C5
:100420009646203922BFA0E80C50A0E80C50B1F14C
:100430002001BFF4F7AF090728BFA0E80C5048BF60
:100440000CC05DF804EB890028BF40F8042B08BFFE
:10045000704748BF20F8022B11F0804F18BF00F8FA
:10046000012B704770477047704710B5203AC0F0B5
:100470000B80B1E81850A0E81850B1E81850A0E877
:100480001850203ABFF4F5AF5FEA027C24BFB1E810
:100490001850A0E8185044BF18C918C0BDE8104053
:1004A0005FEA827C24BF51F8043B40F8043B08BF5C
:1004B0007047D20728BF31F8023B48BF11F8012B23
:1004C00028BF20F8023B48BF00F8012B7047754653
:1004D00000F02CF8AE4605006946534620F00700B0
:1004E000854618B020B5FFF7BFFEBDE820404FF0AD
:1004F00000064FF000074FF000084FF0000BAC462D
:10050000ACE8C009ACE8C009ACE8C009ACE8C00977
:1005100021F007018D46704710B50446AFF3008007
:100520002046BDE81040FFF78ABE00000048704733
:100530001000002001491820ABBEFEE72600020093
:1005400070470000FEE70000704700002DE9F04F03
:1005500082B000F13E4242F2004502F1FF77C4F260
:1005600002050A2243F6004E4FEAB726A84208BF0A
:100570000922C4F2010E092E38BF4FEAB722012525
:10058000002600274FF00008009208E008F101085B
:100590000437B8F1100F06F1020600F0A7800C68CE
:1005A00005FA08F914EA090FF0D0D1F804B00322D3
:1005B0000BF0030CACF10104B240012C6FEA020A0B
:1005C00010D88268CC6802EA0A02B44022438260F2
:1005D0004268CBF3001422EA090204FA08F4224329
:1005E000426005E0BCF1030F02D14FF0030C20E0A4
:1005F000C2688C6802EA0A02B4402243BCF1020FCE
:10060000C26016D16FF0030202EA58020244D2F827
:1006100020C007F01C050F230C69AB402CEA030334
:1006200004FA05F52B431362D1F804B001250BF051
:10063000030C02680CFA06F302EA0A021A431BF4DE
:10064000403F0260A2D0002243F644030192C4F26C
:1006500002031A684FF6084C42F480421A601A6886
:10066000CFF6FF7C02F480420192019A28F0030247
:10067000724452F80C3007F00C050F24AC40A34331
:10068000009C04FA05F52B4342F80C30DEF80820F4
:100690004B6842EA090543F60C4CDC0258BF22EADB
:1006A0000905CEF80850C4F2010CDCF800209C02C9
:1006B00042EA090558BF22EA0905CCF80050DEF8E5
:1006C00004209C0342EA090558BF22EA0905CEF836
:1006D0000450DEF80020DB0342EA090558BF22EA95
:1006E0000905CEF80050012550E700BF02B0BDE873
:1006F000F08F0000426902EA0103914341EA03419D
:1007000081617047002A08BF0904816170470000B9
:1007100044F2CC20C2F200000068704740F20000B2
:1007200044F2CC21C2F20000C2F2000100780A6853
:10073000104408607047000080B543F60040C4F2E2
:100740000200016841F400710160016841F48061B8
:100750000160016841F480710160032000F07AF8C3
:100760000F2000F005F800F027F8002080BD000001
:1007700070B540F20006C2F2000640F2080132787D
:10078000C2F200014FF47A730968B3FBF2F2044637
:10079000B1FBF2F1084600F00DFB0F2C4FF0010504
:1007A00008D838B94FF0FF3021460022002500F06C
:1007B00025F87460284670BD82B0002043F64001E1
:1007C0000190C4F202014A6842F480424A604A68D9
:1007D00002F480420192019A00900868002240F0E1
:1007E0008050086008680F2100F080500090009849
:1007F0006FF0010002B000F001B8000010B54EF635
:100800000C5CCEF2000CDCF80030C3F3022E8EF04C
:100810000704042C28BF0424BEF103034FF0FF3E5D
:100820000EFA04F438BF0023A14399400EFA03F3F3
:100830009A43114300F00F0200F160430901043AAA
:1008400003F564436244002848BF02F10C031970A9
:1008500010BD00004EF60C51CEF200010A684FF6B2
:10086000FF031A4060F30A2242F0806040F0FD70FE
:10087000086070472DE9F041002800F08B8043F6B6
:100880000808C4F202080446D8F8F8030D4600F040
:100890000F00884207D288F8F853D8F8F80300F020
:1008A0000F00A84276D12068810717D5410705D5EA
:1008B000D8F8001041F4E051C8F80010010705D540
:1008C000D8F8001041F46041C8F80010D8F80010C2
:1008D000A26821F0F0011143C8F80010C0073FD111
:1008E000D8F8F80300F00F00A84207D988F8F853A9
:1008F000D8F8F80300F00F00A8424BD12068410758
:1009000007D5D8F80010E26821F4E0511143C8F887
:100910000010000708D5D8F80000216920F46040D5
:1009200040EAC100C8F8000000F054F8D8F8001000
:1009300042F60662C1F30311C0F60002515C40F2B8
:10094000080220FA01F140F20400C2F2000000683F
:10095000C2F200021160FFF70BFF0020BDE8F0813A
:100960006068811E022907D258F8081C89015CBF03
:100970000120BDE8F08111E0012807D158F8081CDA
:1009800089035CBF0120BDE8F08107E058F8081C2E
:10099000890703D40120BDE8F08100BFD8F800101A
:1009A00021F003010843C8F80000FFF7B1FE064636
:1009B00041F28837D8F80000616800F00C00B0EB15
:1009C000810F8DD0FFF7A4FE801BB842F2D903201F
:1009D000BDE8F08110B543F60404C4F20204606877
:1009E00000F00C0142F200400829C0F2F40007D0E8
:1009F000042918BF10BD41F20020C0F27A0010BDDA
:100A0000216801F03F02216823684902C3F388117D
:100A100006D4A1FB00010023FFF738FC07E000BF6C
:100A200041F20020C0F27A004843B0FBF2F02168A6
:100A30000222C1F3014102EB4101B0FBF1F010BD14
:100A40002DE9F04182B0002868D00446007843F6D2
:100A50000006C007C4F202060BD0B06800F00C001C
:100A6000042840F09F803068800302D56068002829
:100A700054D0207880071AD5B06810F00C0F09D038
:100A8000B06800F00C00082840F0A68070684002B2
:100A900000F1A2803068800702D5E06801283DD1CE
:100AA0003068216920F0F80040EAC1003060207809
:100AB000000737D4207840074CD4A56955B3B068F7
:100AC00000F00C00082840F0BB80012D26D0706893
:100AD000E16900F480028A4220D1216A00F03F02DD
:100AE0008A421BD147F6C071626A0140B1EB821F96
:100AF00014D1A16A4FF6FF73C903994300F4403241
:100B0000A1F580318A4209D1E16A00F07060B0EB52
:100B1000016F03D1002002B0BDE8F081012002B0D6
:100B2000BDE8F0816069002840F20000C4F247206F
:100B300076D00121C0F8801EFFF7EAFD054600BF10
:100B4000706F8007B6D4FFF7E3FD401B0228F7D98A
:100B5000DDE000BF306C10F080580AD10020019019
:100B6000306C40F080503064306C00F08050019068
:100B7000019847F20007C4F200073868C00541D465
:100B8000386840F480703860FFF7C2FD054600BF4A
:100B90003868C00536D4FFF7BBFD401B0228F7D9E3
:100BA000B5E000BFB06800F00C00082803D1706801
:100BB00040023FF558AF6068B0F5803F07D0B0F510
:100BC000A02F40F08D80306840F480203060306885
:100BD00040F4803030608DE0E068002852D0002082
:100BE000C4F2472001210160FFF792FD054600BFD6
:100BF000306880073FF554AFFFF78AFD401B02289D
:100C0000F6D984E0A068012805D005284ED1306FC0
:100C100040F004003067306F40F0010030674FE073
:100C20000021C0F8801EFFF773FD0546706F800736
:100C30007FF540AFFFF76CFD401B0228F6D966E058
:100C40000027C4F2472700203866FFF761FD022D18
:100C500005460BD1306880015ED5FFF759FD401B7A
:100C600002284FF00300F5D955E700BF3068800136
:100C70007FF550AFFFF74CFD401B02284FF00300FB
:100C8000F4D948E70020C4F2472000210160FFF7B3
:100C90003FFD0546306880077FF509AFFFF738FD57
:100CA000401B02284FF00300F4D934E7316F0028CD
:100CB00021F001013167316F21F0040131674DD01E
:100CC000FFF726FD054641F2883700BF306F8007E9
:100CD00056D4FFF71DFD401BB842F7D917E000BFFF
:100CE0003168002821F480313160316821F480219D
:100CF00031604FD0FFF70CFD054600BF3068800320
:100D00003FF5B7AEFFF704FD401B6428F6D903207A
:100D100002B0BDE8F08100BF04F11C052FCD0843EF
:100D200040EA8210D9034FF6FF729143A1F580315A
:100D300040EA05600843706001203866FFF7E8FC70
:100D4000044600BF306880013FF5E4AEFFF7E0FCE9
:100D5000001B02284FF00300F4D9DCE6FFF7D8FCB3
:100D6000054641F2883700BF306F800708D5FFF78E
:100D7000CFFC401BB8424FF00300F5D9CBE600BFD3
:100D8000B8F1000F7FF499AE306C20F080503064E1
:100D900093E600BFFFF7BCFC054600BF3068800348
:100DA0007FF567AEFFF7B4FC401B64284FF00300EB
:100DB000F4D9B0E6411E0020B0EB116F1CBF01203A
:100DC00070474EF21002CEF2000251604EF62351EF
:100DD000CEF20001F0230B70072190601160704784
:100DE000FEE7000070B586B0002543F6300005959B
:100DF0000095C4F20200016840F6000441F0800151
:100E000001600168C4F2020401F0800100910099C0
:100E100000950168002241F00401016001684FF46F
:100E2000407601F00401009100990095016841F0BD
:100E30000101016000684FF4407100F00100009072
:100E400000982046FFF75EFC0120CDE9020501A9CC
:100E5000204601960495FFF779FB06B070BD0000AF
:100E6000FEE70000FEE700000000000000000000B8
:100E7000EFF30980BFF36F8F154B1A681EF0100F48
:100E800008BF20ED108A20E9F04F10602DE909001D
:100E90004FF0500080F31188BFF34F8FBFF36F8F77
:100EA00001F06CF94FF0000080F31188BDE80900F3
:100EB00019680868B0E8F04F1EF0100F08BFB0ECDA
:100EC000108A80F30988BFF36F8F704700BF00BF9F
:100ED000780000200000000000000000000000007A
:100EE000074B19680868B0E8F04F80F30988BFF332
:100EF0006F8F4FF0000080F31188704700BF00BF74
:100F00007800002080B5FFF709FC01F085FD01287D
:100F100008BF80BDBDE8804001F050BAB0B592B0C6
:100F2000002443F64000CDE90A44CDE90844059485
:100F3000CDE90344CDE901440094C4F20200016804
:100F4000022541F080510160006800F0805000905F
:100F5000009847F200000094C4F20000016841F4D8
:100F600040410160006800F440400090009801207A
:100F700006904FF4A02007904FF480000D900420BD
:100F80000E90A820CDE90F050720119006A80C951A
:100F9000FFF756FD20B1EFF3108072B6FEE700BFF9
:100FA0000F20CDE901054FF4A05004904FF480507C
:100FB000059001A805210394FFF75CFC20B1EFF335
:100FC000108072B6FEE700BF12B0B0BD4EF688507A
:100FD000CEF20000016841F470010160704700002A
:100FE000FEE7000082B0FFF7A7FBFFF797FFFFF7D0
:100FF000F9FE40F2700441F61D30C2F200040125F2
:10100000C0F600000BA1802200230095019401F09E
:1010100097FC41F639300434C0F6000007A1802265
:1010200000230095019401F08BFC01F027F800BF2C
:10103000FEE700BF4C454420433800004C454420A7
:10104000433900002DE9F041044600F00BFE40F268
:101050007806C2F20006F06840F26C250130F060BC
:101060003068C2F2000558B13069002840F00781AD
:101070003068E16AC06A884298BF3460FFE000BF10
:101080003460F068012840F0FA80284600F090FDB6
:1010900005F1140000F08CFD05F1280000F088FD3A
:1010A00005F13C0000F084FD05F1500000F080FDEA
:1010B00005F1640000F07CFD05F1780000F078FD9A
:1010C00005F18C0000F074FD05F1A00000F070FD4A
:1010D00005F1B40000F06CFD05F1C80000F068FDFA
:1010E00005F1DC0000F064FD05F1F00000F060FDAA
:1010F00005F5827000F05CFD05F58C7000F058FD80
:1011000005F5967000F054FD05F5A07000F050FD57
:1011100005F5AA7000F04CFD05F5B47000F048FD2F
:1011200005F5BE7000F044FD05F5C87000F040FD07
:1011300005F5D27000F03CFD05F5DC7000F038FDDF
:1011400005F5E67000F034FD05F5F07000F030FDB7
:1011500005F5FA7000F02CFD05F5027000F028FD91
:1011600005F5077000F024FD05F50C7000F020FD7A
:1011700005F5117000F01CFD05F5167000F018FD66
:1011800005F51B7000F014FD05F5207000F010FD52
:1011900005F5257000F00CFD05F52A7000F008FD3E
:1011A00005F52F7000F004FD05F5347000F000FD2A
:1011B00005F5397000F0FCFC05F53E7000F0F8FC18
:1011C00005F5437000F0F4FC05F5487000F0F0FC04
:1011D00005F54D7000F0ECFC05F5527000F0E8FCF0
:1011E00005F5577000F0E4FC05F55C7000F0E0FCDC
:1011F00005F5617000F0DCFC05F5667000F0D8FCC8
:1012000005F56B7000F0D4FC05F5707000F0D0FCB3
:1012100005F5757000F0CCFC05F57A7000F0C8FC9F
:1012200005F57F7000F0C4FC05F5826000F0C0FC9D
:1012300005F2244000F0BCFC05F5876000F0B8FC26
:1012400005F24C4000F0B4FC40F25418C2F2000821
:10125000404600F0ADFC08F11407384600F0A8FC49
:1012600006F1640000F0A4FC06F13C0000F0A0FCD4
:1012700006F1500000F09CFCC6F81C8037627068D4
:10128000716A421CE06A72608842626488BF706260
:1012900000EB800005EB8000211D00F0CBFC00F08E
:1012A00005FD306988B13068E16AC06A884228BFAC
:1012B000BDE8F0814EF60450CEF200004FF08051B0
:1012C0000160BFF34F8FBFF36F8FBDE8F081000067
:1012D00040F2780540F26C264EF60458C2F2000542
:1012E000C2F20006CEF200084FF0805703E000BFC4
:1012F000204600F0F3FCA868D0B100F0B3FCA86C65
:10130000C468201D00F026FCE8680138E860A86881
:101310000138A86000F0CAFC94F859000228EAD00D
:101320000128E5D070B9206B00F0D8FCE0E700BFE1
:1013300030680228DFD3C8F80070BFF34F8FBFF3C7
:101340006F8FD8E74FF0500080F31188BFF36F8F95
:10135000BFF34F8FFEE700002DE9F0470A9C82465D
:10136000206B16460F46DDE908599100A5229846E4
:10137000FFF749F8206B002F00EB8600A0F1040076
:1013800020F0070656D0387884F8340038780028E2
:101390004BD0787884F835007878002845D0B87834
:1013A00084F83600B87800283FD0F87884F8370001
:1013B000F878D0B3387984F838003879A8B37879D8
:1013C00084F83900787980B3B87984F83A00B8792C
:1013D00058B3F87984F83B00F87930B3387A84F858
:1013E0003C00387A08B3787A84F83D00787AE0B126
:1013F000B87A84F83E00B87AB8B1F87A84F83F0039
:10140000F87A90B1387B84F84000387B68B1787BFB
:1014100084F84100787B40B1B87B84F84200B87B07
:1014200000281CBFF87B84F84300002084F84300A8
:1014300003E000BF002084F834000027201D372D72
:1014400028BF3725E562C4E9135700F0BDFB04F15E
:10145000180000F0B9FBC5F13800A06130465146D4
:10146000424624616462676584F8587000F042FB6C
:10147000B9F1000F206018BFC9F80040BDE8F0873F
:1014800008480068006880F308884FF0000080F387
:10149000148862B661B6BFF34F8FBFF36F8F00DF62
:1014A00000BF000008ED00E081B00020009040F295
:1014B0000C00C2F2000000684FF0500181F3118867
:1014C000BFF36F8FBFF34F8F013007D0FEE700BF30
:1014D000009830B9009820B9009810B900980028F9
:1014E000F6D001B07047000088B040F2F00AC2F2B6
:1014F000000A0DF11009EB46DAF8080005681DB185
:10150000C068046801E000BF002400F02FFE01F075
:1015100093FADAF810100646884220D3002DCAF854
:10152000106051D0A6424FD301F08EFBDAF80800CC
:10153000C068C7683D1D284600F00CFB97F82800DE
:10154000410745D400F0FE0087F8280084E000BF82
:101550006860DAF8080039462D6100F039FBDAF8E6
:101560000800016831B3C068C56804682F1D38469B
:1015700000F0F0FA296A2846884795F828004007C5
:10158000EDD5A8692044A042E2D8DAF8000000288E
:1015900000F04881002004A931C101F03DFADAF8D9
:1015A000000049460022002300F090FF0028D6D119
:1015B00038E100BFDAF80C10CAF81060CAE902106E
:1015C00001F042FB1AE100BF65B1002210E000BF4C
:1015D000B8693F610119B14279601FD90AF1080069
:1015E00021E000BFDAF80C000068B0FA80F0420990
:1015F000DAF80000A11B00F04DFC01F025FB0028EB
:1016000040F0FC804EF60450CEF200004FF08051C6
:101610000160BFF34F8FBFF36F8FEFE0311B81424B
:1016200006D20AF10C000068294600F0D1FA13E056
:10163000DAF80000002800F01381002004A991C10D
:1016400001F0EAF9DAF8000049460022002300F030
:101650003DFF002800F00481396A38468847CDE014
:101660000098B0F1FF3F07DCDDE9012003999047C6
:101670000098002800F1C280029E706910B1301DF0
:1016800000F068FA01F0D8F9DAF81010074688423D
:101690000DD30098CAF8107009283FD9AEE000BFFA
:1016A0006860DAF8080021462D6100F091FADAF856
:1016B0000800016841B3C068C568D0F800802C1DDF
:1016C000204600F047FA296A2846884795F82800FE
:1016D0004007ECD5A86940444045E1D8DAF800005D
:1016E000002800F095800020CDE90408069501F05F
:1016F00093F9DAF8000049460022002300F0E6FEE4
:101700000028D4D184E000BFDAF80C10CAE9021036
:101710000098CAF81070092800F27080DFE800F025
:101720000606064448620606444800BF96F82800AC
:10173000019A40F00101B06986F8281083183146FB
:1017400041F8043FBB42366106D997420AF10800CE
:1017500007D293420AD204E0BA1A824206D20AF1B0
:101760000C00006800F034FA48E000BF316A3046EF
:10177000884796F82800400740D5DAF8000000288E
:101780005AD00198B169069608440021CDE90410A9
:1017900001F042F9DAF8000049460022002300F087
:1017A00095FE58BB48E000BF96F8280022E000BF35
:1017B00096F8280040F00101019886F828100028CA
:1017C000B06143D0384431460AF10C0241F8040FAD
:1017D0003661B84288BF0AF10802106800F0F8F9D3
:1017E0000CE000BF96F82800810703D4304600F0D3
:1017F00075FA03E000F0FE0086F82800DAF8000031
:101800005946002200F078FF00287FF429AF73E6E4
:101810004FF0500080F31188BFF36F8FBFF34F8FED
:10182000FEE700BF4FF0500080F31188BFF36F8FC9
:10183000BFF34F8FFEE700BF4FF0500080F31188D9
:10184000BFF36F8FBFF34F8FFEE700BF4FF0500025
:1018500080F31188BFF36F8FBFF34F8FFEE700BF98
:101860004FF0500080F31188BFF36F8FBFF34F8F9D
:10187000FEE70000F0B581B0044600F0F3F994F9FA
:101880004560012E0FDB04F1240500BF286850B12C
:10189000284601F09FF9002818BF00F06FFBF0B256
:1018A000013E0128F2D8FF2684F8456000F0FEF9D9
:1018B00000F0D8F994F94470012F0EDB04F1100503
:1018C000286850B1284601F085F9002818BF00F0BB
:1018D00055FBF8B2013F0128F2D884F8446001B00A
:1018E000BDE8F04000F0E2B970B5044600F03EFCFF
:1018F00040F22C1CC2F2000CDCF8040050B19CF841
:101900000000002818BF4FF000404FF0000574BBE6
:101910008DE000BF40F2CC60C2F20000C21D22F098
:10192000070210F00701A0EB020318BF10460022C7
:101930004FF47055CCE90602002918BF03F5705525
:10194000411921F00701A1F10803CCF8043041E965
:101950000222191AC0E9003101208CF800004FF072
:101960000040CCE90211002C4FF000055FD0204070
:101970005DD124F0070000F11002600708BF04F1F8
:101980000802002A4FF0000551D0DCF8080082421E
:101990004DD8604650F818EFDEF8045095422CD22E
:1019A000DEF80010C1B174464D68954218D20B683C
:1019B000B3B15D68954217D21868A8B145689542E1
:1019C00016D20468A4B16568954215D22168A6466E
:1019D0000029E9D111E000BF0CF118000DE000BFB3
:1019E0008E46204609E000BF9E46084605E000BF3F
:1019F0008646184601E000BFA646DCF804108E4576
:101A000014D00168DEF80040AB1A112B04604DD3EE
:101A10000EEB0205680719D04FF0500080F31188D3
:101A2000BFF36F8FBFF34F8FFEE700BF002501F0BC
:101A30000BF968075BD04FF0500080F31188BFF3BB
:101A40006F8FBFF34F8F00BFFEE700BF0CF1180090
:101A50006B60CEF8042000BF0368AB420AD218685E
:101A6000A8420BD20368AB4204D218681A46A842B7
:101A7000F2D304E00246184601E000BF1A4653685C
:101A80006C68D618AE4202D11C44154654602B191E
:101A9000834207D1DCF80430984203D0D0E9000338
:101AA00023446B60AA42286018BF156001F1080545
:101AB000DEF80400DCE90212091A9142CCF80810A1
:101AC00038BFCCF80C109CF80010002918BF40F06B
:101AD0000040CEF80400DCF8100000210130CEF800
:101AE0000010CCF8100001F0AFF86807A3D1284629
:101AF00070BD0000034641F2A940C0F600004FF05F
:101B0000807C21F0010103E903106FF0020043F82B
:101B1000240CA3F1440043F8202C704740F6000445
:101B2000C4F2020420464FF48071FEF7E3FD4FF447
:101B3000FA7000F0D9F9F5E740F60004C4F20204A7
:101B400020464FF40071FEF7D5FD642000F0CCF97B
:101B5000F6E70000D0E9013201699A60D1F804C0CB
:101B600082688445536008BF4A60002202610868A9
:101B7000013808600868704744F2D043C2F200039D
:101B8000036044F2D020C2F20000086080201060A0
:101B90007047000044F62C13C2F20003036044F2C5
:101BA0002C50C2F2000008604FF480701060704743
:101BB0004FF0FF31024642F8081F00214260C0E9A1
:101BC000032201607047000000210161704700009E
:101BD00010B5D1F800E01EF1010213D000F10804A5
:101BE00062681368734511D853681C68744511D82E
:101BF0005A68146874450FD854682368A44673451E
:101C0000EED90BE00269D2F804C007E09446224600
:101C100004E000BF9C4601E094461A46C1F804C0A7
:101C2000CCF808108A6051600861016801310160D8
:101C300010BD0000D0F800C0436808619A684B608E
:101C40008A609A68996051600CF1010101607047E7
:101C5000DFF80C00016841F470010160704700007A
:101C600088ED00E04FF0500080F31188BFF36F8FD4
:101C7000BFF34F8F40F20C00C2F2000001684A1C13
:101C8000026009B1704700BF4EF60450CEF200006A
:101C90000068000608BF70474FF0500080F31188BD
:101CA000BFF36F8FBFF34F8FFEE7000040F20C00D1
:101CB000C2F20000016839B10139016018BF7047F4
:101CC000002080F3118870474FF0500080F3118896
:101CD000BFF36F8FBFF34F8FFEE7000070B5002892
:101CE00008BF70BD40F22C15C2F2000504462878EA
:101CF00054F8041C002818BF4FF0004008420DD0D3
:101D0000A4F1080632689AB14FF0500080F31188B0
:101D1000BFF36F8FBFF34F8FFEE700BF4FF0500050
:101D200080F31188BFF36F8FBFF34F8FFEE700BFC3
:101D300021EA000044F8040C00F018FA54F8041CDE
:101D4000A8680844A86005F1180000BF0368B34202
:101D50000AD21868B04225D20368B34204D2186888
:101D60001A46B042F2D301E0024618465368D4182E
:101D7000B44202D11944164651607318834206D109
:101D80006B68984203D0D0E9000319447160B242F5
:101D9000306018BF1660686901306861BDE8704046
:101DA00000F052BF1A465368D418B442E5D1E1E7B7
:101DB0004EF21000CEF2000000210160816040F27E
:101DC0000801C2F20001096844F6D352C1F262026E
:101DD000A1FB02124FF0FF3101EB9211416007218C
:101DE0000160704744F6881CC2F2000CDCF8002049
:101DF00022B3634653F8082F42B3634653F8102FBB
:101E000052B3634653F8182F62B3634653F8202F3A
:101E100072B3634653F8282F82B3634653F8302FCA
:101E200092B3634653F8382F002A18BF7047072231
:101E300019600CEBC2014860704700BF0022634686
:101E400019600CEBC2014860704700BF01221960A5
:101E50000CEBC20148607047022219600CEBC20112
:101E600048607047032219600CEBC201486070475C
:101E7000042219600CEBC20148607047052219600A
:101E80000CEBC20148607047062219600CEBC201DE
:101E90004860704770B515460E460446FFF7E2FEEF
:101EA00094F84400FF2804BF002084F8440094F80C
:101EB0004500FF2804BF002084F84500FFF7F6FE28
:101EC000A06B28B12046BDE87040FFF7D3BC00BF2F
:101ED00004F1240031462A4600F092F82046BDE87D
:101EE0007040FFF7C7BC000070B588B340F27805BA
:101EF000C2F200050446686950B14FF0500080F30B
:101F00001188BFF36F8FBFF34F8F00BFFEE700BF95
:101F1000686901306861AE6928680430FFF71AFE0D
:101F20002868A419446005D3286A29680431FFF79A
:101F30004FFE08E0E86929680431FFF749FEE86AC6
:101F4000844238BFEC6200F07FFE002818BF70BDED
:101F50004EF60450CEF200004FF080510160BFF306
:101F60004F8FBFF36F8F70BD40F27801C2F2000156
:101F70008A6B0260896941607047000040F2780016
:101F8000C2F20000012101637047000070B5D8B1B2
:101F900040F27804C2F200040D4621681831FFF7C0
:101FA00017FEA66920680430FFF7D4FD681C15D021
:101FB0002068AD19456019D3206A21680431BDE855
:101FC0007040FFF705BE00BF4FF0500080F311884E
:101FD000BFF36F8FBFF34F8FFEE700BF54F8500B76
:101FE000011D2046BDE87040FFF724BEE06921686E
:101FF0000431FFF7EDFDE06A854238BFE56270BD50
:10200000F0B581B0C0B140F27804C2F200040D46D0
:10201000216816461831FFF70DFEA76920680430C5
:10202000FFF798FD96B154F8500B011D204601B002
:10203000BDE8F040FFF7FEBD4FF0500080F311887F
:10204000BFF36F8FBFF34F8FFEE700BF2068ED191E
:10205000456007D3206A2168043101B0BDE8F04033
:10206000FFF7B6BDE06921680431FFF7B1FDE06A12
:10207000854238BFE56201B0F0BD000010B588B000
:102080000020CDE9050006A805A904AAFFF774FD04
:10209000059800283ED0069C002C45D05C21049A6F
:1020A000079107995C2949D107992063022084F898
:1020B000590007A80021CDE9001041F2D120C0F657
:1020C000000028A100230294FFF746F92046FEF7FE
:1020D000B9FF079840F27804C2F20004A062B0B1E0
:1020E00000F02AFE411C33D0012810D14FF05000DF
:1020F00080F31188BFF36F8FBFF34F8F4FF0FF3026
:10210000E062012020610020A06100F095F808B095
:1021100010BD00BF4FF0500080F31188BFF36F8FE8
:10212000BFF34F8FFEE700BF4FF0500080F31188E0
:10213000BFF36F8FBFF34F8FFEE700BF4FF050002C
:1021400080F31188BFF36F8FBFF34F8FFEE700BF9F
:102150004FF0500080F31188BFF36F8FBFF34F8FA4
:10216000FEE700BF49444C450000000040F2780003
:10217000C2F20000416901314161704780B540F20F
:10218000780EC2F2000EDEF8141019B10121CEF85B
:10219000301080BD0021CEF83010DEF8241040F25F
:1021A0006C2C01EB8103C2F2000C5CF823208AB195
:1021B00001EB81020CEB820353F8042F5268181DC7
:1021C00082421A6020D0D068CEF80000CEF82410E9
:1021D00080BD00BF0CEB8302A2F12803E1B15A6974
:1021E00022BB012918D01A6812BB022914D053F857
:1021F000142CFAB903290FD053F8282C0439002ADB
:10220000A3F15003EAD0D3E752681A60D068CEF841
:102210000000CEF8241080BD4FF0500080F31188EC
:10222000BFF36F8FBFF34F8FFEE700BF0139BFE7EA
:102230000239BDE70339BBE7B0B584B04EF2004CBC
:10224000CEF2000C4CF27021C4F20F11DCF8002920
:102250004B1C9A420AD14FF0500080F31188BFF313
:102260006F8FBFF34F8F00BFFEE700BFDCF8002980
:102270008A4209D14FF0500080F31188BFF36F8F6D
:10228000BFF34F8FFEE700BF9CF800100291FF21C3
:102290008CF800109CF800108DF807109DF80710BE
:1022A00001F0500240F24C11C2F200010A70072204
:1022B0004A609DF90720B2F1FF3F69DC032200BFAD
:1022C000D31C4B609DF8070040008DF807009DF976
:1022D0000700B0F1FF3F23DC931C4B609DF8070023
:1022E00040008DF807009DF90700B0F1FF3F17DCB3
:1022F000531C4B609DF8070040008DF807009DF9C6
:102300000700B0F1FF3F0BDC4A609DF80700043A7C
:1023100040008DF807009DF907000028D0D4131D58
:10232000032B35D14FF44070486002988CF80000C0
:10233000DCF8200940F47000CCF82009DCF8200912
:1023400040F07040CCF82009FFF732FD40F20C0459
:10235000C2F2000400252560FFF77AFC4EF63470C7
:10236000CEF20000016841F040410160FFF788F8BB
:10237000FFF704FF039520684FF0500181F31188A7
:10238000BFF36F8FBFF34F8F013011D0FEE700BF57
:102390004FF0500080F31188BFF36F8FBFF34F8F62
:1023A000FEE700BF039830B9039820B9039810B92D
:1023B00003980028F6D0002004B0B0BD80B54FF0DF
:1023C000500080F31188BFF36F8FBFF34F8F00F081
:1023D00039FB30B14EF60450CEF200004FF0805180
:1023E0000160002080F3118880BD000070B582B0CC
:1023F00070B11C46B3B1F9B9F2B14FF0500080F39F
:102400001188BFF36F8FBFF34F8F00BFFEE700BF90
:102410004FF0500080F31188BFF36F8FBFF34F8FE1
:10242000FEE700BF4FF0500080F31188BFF36F8FBD
:10243000BFF34F8FFEE700BF51B14AB94FF05000D4
:1024400080F31188BFF36F8FBFF34F8FFEE700BF9C
:1024500050230193019B502B2ED1019B069E0123FB
:1024600084F84630002908BF22462260C4E90F01E3
:10247000FFF7F8FB2068D4E90F12002502FB0103E7
:10248000013901FB0201A563C4E90103FF20E160FA
:1024900084F8440084F8450004F11000FFF788FB3D
:1024A00004F12400FFF784FBFFF700FC204684F8CA
:1024B0004C6002B070BD00BF4FF0500080F3118837
:1024C000BFF36F8FBFF34F8FFEE700002DE9F04F92
:1024D00083B00292C0B11D4617460E460446E9B1CC
:1024E000022D03D1E06B012840F0888000F094FABF
:1024F00010BB0FB34FF0500080F31188BFF36F8F04
:10250000BFF34F8FFEE700BF4FF0500080F31188FC
:10251000BFF36F8FBFF34F8FFEE700BF206C002823
:10252000DED04FF0500080F31188BFF36F8FBFF300
:102530004F8F00BFFEE700BFFFF794FBA06B022D9B
:1025400066D0E16B884263D304F1100801206F4626
:102550000DF108090DE000BF2046FFF78BF900F0F0
:1025600073FBFFF77FFBA06BE16B88424FF000002D
:102570004ED30299002973D0C00702D03846FFF726
:10258000F3FCFFF793FBFFF7F1FDFFF76BFB94F80C
:102590004400FF2804BF002084F8440094F845005C
:1025A000FF2804BF002084F84500FFF77FFB384672
:1025B000494600F073F9002858D1FFF753FBD4F8CF
:1025C00038A0D4F83CB0FFF771FBDA45C4D10299CA
:1025D0004046FFF7DBFC2046FFF74CF900F034FBE8
:1025E0000028BED14EF60450CEF200004FF08051CC
:1025F0000160BFF34F8FBFF36F8FB2E74FF0500012
:1026000080F31188BFF36F8FBFF34F8FFEE700BFDA
:10261000A76B226CD2B19DB3E0683146FDF7AEFEE8
:10262000E168206C2268091A9142E16003D2A16836
:1026300040420844E060A81EB0FA80F040093946E4
:10264000002F18BF012108403F1A26E0206800250E
:1026500020BBA06800F078FAA56005461EE000BF28
:10266000FFF724FB002003B0BDE8F08F2046FFF702
:1026700001F900F0E9FA002003B0BDE8F08F00BFD7
:1026800060683146FDF77AFE216CD4E90102084406
:102690009042606001D3206860600025781CA063D0
:1026A00054F8240FA0B1204600F094FA50B14EF631
:1026B0000450CEF200004FF080510160BFF34F8F05
:1026C000BFF36F8FFFF7F2FA012003B0BDE8F08F80
:1026D000002DF7D04EF60450CEF200004FF080519E
:1026E0000160BFF34F8FBFF36F8FFFF7DFFA012059
:1026F00003B0BDE8F08F00002DE9F04F83B00292E7
:1027000090B116460D460446002947D000F084F9E2
:10271000A0B99EB14FF0500080F31188BFF36F8FC6
:10272000BFF34F8FFEE700BF4FF0500080F31188DA
:10273000BFF36F8FBFF34F8FFEE700BFFFF792FA33
:10274000D4F838A0BAF1000F36D0226C52B1D4E9D7
:1027500002308118E160994224BF2168E160284677
:10276000FDF70CFEAAF10100A06354F8100F70B140
:10277000204600F02FFA50B14EF60450CEF2000081
:102780004FF080510160BFF34F8FBFF36F8F012473
:10279000FFF78CFA204603B0BDE8F08F206C0028CC
:1027A000B4D04FF0500080F31188BFF36F8FBFF3A8
:1027B0004F8F00BFFEE700BF04F1240801206F46E1
:1027C0004FF000090DF1080B2EE000BFFFF76EFA85
:1027D000FFF7CCFCFFF746FA94F84400FF2808BF47
:1027E00084F8449094F84500FF2808BF84F8459089
:1027F000FFF75CFA3846594600F050F8E0B1204641
:10280000FFF738F800F020FAFFF72CFAA66BFFF775
:102810004DFA002E3CD0FFF725FAD4F838A000205E
:10282000BAF1000F7FF491AF029949B3C007CDD040
:102830003846FFF799FBC9E7FFF714FAA66BFFF7D5
:1028400035FA2EB12046FFF715F800F0FDF9E2E762
:1028500002994046FFF79AFB2046FFF70BF800F07D
:10286000F3F90028D7D14EF60450CEF200004FF015
:1028700080510160BFF34F8FBFF36F8FCBE700BF75
:102880000024FFF713FA204603B0BDE8F08F00BF25
:102890000024204603B0BDE8F08F0000B0B5D8B1E9
:1028A0000D4619B30446FFF7DDF940F2780CC2F289
:1028B000000CDCF8182029684B1C21D0D4E9000E4C
:1028C000DCF83830834221D072451FD30124FFF752
:1028D000EDF92046B0BD00BF4FF0500080F31188E5
:1028E000BFF36F8FBFF34F8FFEE700BF4FF0500075
:1028F00080F31188BFF36F8FBFF34F8FFEE700BFE8
:102900000024FFF7D3F92046B0BD00BFA2EB0E02B2
:1029100091420DD9881A2860DCF838002060DCF874
:10292000180060600024FFF7C1F92046B0BD00BF69
:10293000002001242860FFF7B9F92046B0BD00004F
:102940002DE9F04383B00746900098461546894626
:10295000FEF7CAFFF8B106465C20FEF7C5FFB8B126
:102960000446DDE90A100022266384F85920CDE9E7
:102970000010384649462A4643460294FEF7ECFCCE
:102980002046FEF75FFB012003B0BDE8F08300BFE7
:102990003046FFF7A3F94FF0FF3003B0BDE8F083F6
:1029A00070B586B00B9CCCB10C9E0EB35C25049523
:1029B000049D5C2D26D1049DDDF828C0022586F8F3
:1029C000595005AD3463CDE900C50296FEF7C4FC4D
:1029D0003046FEF737FB059806B070BD4FF050004B
:1029E00080F31188BFF36F8FBFF34F8FFEE700BFF7
:1029F0004FF0500080F31188BFF36F8FBFF34F8FFC
:102A0000FEE700BF4FF0500080F31188BFF36F8FD7
:102A1000BFF34F8FFEE7000040F27800C2F20000E3
:102A2000016900290FBF01204069B0FA80F0400918
:102A300018BF40007047000040F27800C2F200006A
:102A4000806970472DE9F04381B040F27806C2F208
:102A50000006706940B1706B00240130706320463D
:102A600001B0BDE8F08300BFB06910F10109C6F8FC
:102A7000189020D3F069006850B14FF0500080F3F7
:102A80001188BFF36F8FBFF34F8F00BFFEE700BF0A
:102A9000F069316AF1613062B06B0130B063F069A6
:102AA000006828B1F069C068C068406802E000BFF3
:102AB0004FF0FF30F062F06A40F26C288145C2F2BC
:102AC000000801D200242EE0F0690024006813E021
:102AD000F86A716A884288BF706200EB800008EB78
:102AE00080002946FFF7A6F8F86A3168C96AF269DA
:102AF000884228BF0124106890B1F069C068C76897
:102B00003D4655F8040F81450CD32846FFF722F8BF
:102B1000B86A0028DCD007F11800FFF71BF8D7E7E8
:102B20004FF0FF30F0623068C06A00EB800058F868
:102B30002000012888BF0124306B002818BF012421
:102B4000204601B0BDE8F08370B588B140F2780648
:102B5000C2F2000604463068A0420BD04FF050008D
:102B600080F31188BFF36F8FBFF34F8FFEE700BF75
:102B7000002070BD206D18B3411EE06AE26C216533
:102B800090424FF0000008BF70BDC1B9251D284616
:102B9000FEF7E0FFE06CC0F13801E062A161716A0C
:102BA000884240F26C2188BF706200EB8000C2F264
:102BB000000101EB80002946FFF73CF8012070BDC1
:102BC0004FF0500080F31188BFF36F8FBFF34F8F2A
:102BD000FEE7000070B5C068C5686DB105F1180466
:102BE0002046FEF7B7FF40F27806C2F20006706991
:102BF00060B106F164001AE04FF0500080F31188D4
:102C0000BFF36F8FBFF34F8FFEE700BF2C1D204631
:102C1000FEF7A0FFE86A716A884240F26C2188BF23
:102C2000706200EB8000C2F2000101EB80002146DF
:102C3000FFF700F8E86A3168C96A884292BF00204D
:102C40000120306370BD00002DE9F04140F27805AD
:102C5000C2F20005686968B1FFF704F868690138D5
:102C60006861686980B10024FFF720F82046BDE85C
:102C7000F08100BF4FF0500080F31188BFF36F8FD9
:102C8000BFF34F8FFEE700BFE8680028EBD0686E07
:102C900088B340F26C26C2F200064FF0010800BF74
:102CA000286FC76807F11800FEF754FF3C1D204647
:102CB000FEF750FFF86A696A884288BF686200EBD5
:102CC000800006EB80002146FEF7B4FFF86A296811
:102CD000C96A884228BFC5F83080686E0028DFD1F5
:102CE000E869006820B1E869C068C068406801E030
:102CF0004FF0FF30E8626C6B4CB10126FFF7A2FE8B
:102D0000002818BF2E63013CF8D100206863286BAF
:102D10000028A8D04EF60450CEF200004FF08051AB
:102D20000160BFF34F8F0124BFF36F8FFEF7BEFF2B
:102D30002046BDE8F081000070B586B0FEF792FF36
:102D400040F2F006C2F20006306808BB06F1140437
:102D50002046FEF72DFF06F128052846FEF728FF3E
:102D600040F27C1240F21C23C6E902450025C2F263
:102D70000002C2F200030A2010210095FFF736FB83
:102D8000306028B142F61661C0F60001FFF72AF85C
:102D9000FEF78CFF3068D8B10020CDE9040005A80B
:102DA00004A903AAFEF7F6FEDDE903200221059D32
:102DB000CDE9001041F2E940C0F6000009A100236E
:102DC0000295FFF7EDFD706010B1012006B070BDF7
:102DD0004FF0500080F31188BFF36F8FBFF34F8F18
:102DE000FEE700BF546D722053766300F1EE100AC7
:102DF0004FF6FF71C0F2C03120EA010040F0407090
:102E0000E1EE100A7047000000000000000001021F
:102E1000030406070809546D72510000402E000893
:102E20000000002010000000E8010008502E0008FB
:102E300010000020B84F000004020008000000004D
:102E400001000000100000000024F400AAAAAAAAB1
:04000005080001AD41
:00000001FF
